:060000000A128A11F42F20
:100C1E007B18122E162E831203138716192E83128B
:100C2E00031387120713790888000A128A112226E5
:100C3E000A128A1108008312031387178230F100FB
:100C4E00DD30F000F00B292EF10B292E2E2E831203
:100C5E00031387138230F100DD30F000F00B352ED8
:100C6E00F10B352E3A2E08000A30F0000030F1005C
:100C7E00831203132608FF3EF20027080318013ED5
:100C8E00FF3EF3000A128A11DD260A128A1170083D
:100C9E00303EF90071080318013E003EFA000130A3
:100CAE00FB000030FC000A128A110F260A128A116C
:100CBE000A30F0000030F100831203132608FF3EC5
:100CCE00F20027080318013EFF3EF3000A128A11B4
:100CDE0084260A128A117008303EF9007108031832
:100CEE00013E003EFA000130FB000030FC000A120B
:100CFE008A110F260A128A110800F601F31F882E98
:100D0E00892E902EF209F309F20A0319F30AF6015D
:100D1E00F60AF11F932E942E992EF009F109F00A7E
:100D2E000319F10A7008710403199E2E9F2ECE2E00
:100D3E00F501F50AAD2E01300310F00DF10DFF3E59
:100D4E00031DA32E0130F4007408F507F11FB02E19
:100D5E00B12EA22E71087302031DB72E70087202F7
:100D6E00031CBA2EBB2EC12E7008F2027108031C92
:100D7E00F303F30201300310F10CF00CFF3E031DE0
:100D8E00C22E0130F502031DCD2ECE2EB12E7608C9
:100D9E000319D22ED32ED82EF209F309F20A031913
:100DAE00F30A7308F1007208F0000800F601F11F53
:100DBE00E12EE22EE92EF009F109F00A0319F10AEB
:100DCE00F601F60AF31FEC2EED2EF62EF209F309BC
:100DDE00F20A0319F30A0130F4007408F606F7015B
:100DEE00F801700871040319FD2EFE2E352FF50142
:100DFE00F50A0C2F01300310F00DF10DFF3E031D0F
:100E0E00022F0130F4007408F507F11F0F2F102F79
:100E1E00012F01300310F70DF80DFF3E031D112FAA
:100E2E0071087302031D1D2F70087202031C202F00
:100E3E00212F282F7008F2027108031CF303F3020E
:100E4E00771401300310F10CF00CFF3E031D292F17
:100E5E000130F502031D342F352F102F760803199C
:100E6E00392F3A2F3F2FF709F809F70A0319F80A15
:100E7E007808F1007708F0000800FF30831603139E
:100E8E0085008312031385018316031387018312D2
:100E9E00031387018316031388018312031388013A
:100EAE0083160317880189013830F9000030FA00E3
:100EBE000030FB00FC000A128A110F260A128A115A
:100ECE000E30F9000030FA000030FB00FC000A1270
:100EDE008A110F260A128A1183120313051C782F0A
:100EEE00792F9C2F8030F9000030FA000030FB0083
:100EFE00FC000A128A110F260A128A11013083127F
:100F0E000313A4070318A50A0030A5072508A70098
:100F1E002408A6000A128A113B260A128A1183128D
:100F2E00031305189B2F9C2F962F851C9F2FA02FE8
:100F3E00C32F8C30F9000030FA000030FB00FC00AB
:100F4E000A128A110F260A128A1101308312031314
:100F5E00A2070318A30A0030A3072308A70022083C
:100F6E00A6000A128A113B260A128A118312031353
:100F7E008518C22FC32FBD2F051DC62FC72F732F48
:100F8E00C730F9000030FA000030FB00FC000A12F6
:100F9E008A110F260A128A118312031322082407BC
:100FAE00A00023080318230A2507A1002008FF3EEE
:100FBE00A60021080318013EFF3EA7000A128A115F
:100FCE003B260A128A11831203130519EF2FF02FF5
:100FDE00EA2F732F0A128A11002883120313A0011D
:100FEE00A101A201A301A401A50183010A128A1184
:020FFE00442F7E
:00000001FF
