:060000000A128A11FC2F18
:100E7C0083120313881208130E3085000A128A118C
:100E8C0056270A128A1108008312031388120813BA
:100E9C00383085000A128A1156270A128A11080066
:100EAC008312031388178230F100DD30F000F00B51
:100EBC005D2FF10B5D2F622F831203138813823089
:100ECC00F100DD30F000F00B692FF10B692F6E2F64
:100EDC0008008316031385018312031385018316FF
:100EEC0003138801831203138801831603178801E7
:100EFC0089010A128A114A270A128A110A128A11C6
:100F0C003E270A128A110A128A1191270A128A1193
:100F1C000A128A110028F201F301F401F501F6011D
:100F2C00F7018312031388120813803085000A120C
:100F3C008A1156270A128A11831203138816081372
:100F4C007208303E85000A128A1156270A128A113D
:100F5C007408303E8312031385000A128A11562737
:100F6C000A128A117608303E8312031385000A1286
:100F7C008A1156270A128A110130F6070318F70A4C
:100F8C000030F7077708803AFF0080307F02031D9E
:100F9C00D12F0A307602031CD42FD52F972F013076
:100FAC00F4070318F50A0030F5077508803AFF00BE
:100FBC0080307F02031DE42F0A307402031CE72FDC
:100FCC00E82F952F0130F2070318F30A0030F307CE
:100FDC007308803AFF0080307F02031DF72F0A3020
:100FEC007202031CFA2FFB2F932F080083010A12A5
:040FFC008A116F2FB8
:00000001FF
