:100000000A128A11F82F00308A000408840A820735
:1000100000344E346F3474342034763461346C34AC
:10002000693464340034633461346C346C3469345E
:060030006E346734003459
:100B0A0083120313881008110814080083120313B0
:100B1A00081008118814080083120313881008109B
:100B2A000815080083120313881208137208860036
:100B3A000A128A11B6250A128A1108007418A62DFB
:100B4A00AA2D831203138816AD2D8312031388125C
:100B5A000813720886000A128A11B6250A128A1127
:100B6A0008008312031388170D30F100FB30F000E0
:100B7A00F00BBD2DF10BBD2DC22D8312031388136B
:100B8A000D30F100FB30F000F00BC92DF10BC92D2F
:100B9A00CE2D0800F3008312031388160813E82DDC
:100BAA00730884000A128A1103200A128A11831216
:100BBA00031386000130F2007208F3070A128A1141
:100BCA00B6250A128A11730884000A128A110320B0
:100BDA000A128A11003A031DF32DF42DD52D0800AF
:100BEA00831603138601831203138601FF308316CB
:100BFA0003138700831203138701831603138801E3
:100C0A008312031388018316031788018901383078
:100C1A00F2000030F3000030F400F5000A128A11E5
:100C2A00A3250A128A110E30F2000030F3000030B8
:100C3A00F400F5000A128A11A3250A128A118030DB
:100C4A00F2000030F3000030F400F5000A128A11B5
:100C5A00A3250A128A110A128A1185250A128A11F3
:100C6A0083120313071C3A2E3B2E5C2E0030F2002F
:100C7A00F3000A128A1197250A128A113130F200FA
:100C8A000030F3000130F4000030F5000A128A1136
:100C9A00A3250A128A11831203130718552E562EFA
:100CAA00502E0130F6070318F70A0030F707871CA1
:100CBA005F2E602E812E0030F200F3000A128A1194
:100CCA0097250A128A113430F2000030F3000130FD
:100CDA00F4000030F5000A128A11A3250A128A11BB
:100CEA008312031387187A2E7B2E752E0130F6078E
:100CFA000318F70A0030F707071D842E852EA62E43
:100D0A000030F200F3000A128A1197250A128A119A
:100D1A003730F2000030F3000130F4000030F50003
:100D2A000A128A11A3250A128A11831203130719B8
:100D3A009F2EA02E9A2E0130F6070318F70A0030CC
:100D4A00F7070A128A118B250A128A1183120313D2
:100D5A00071CB02EB12ED22E0030F200F3000A1278
:100D6A008A1197250A128A113230F2000030F300F4
:100D7A000130F4000030F5000A128A11A3250A1284
:100D8A008A11831203130718CB2ECC2EC62E0130DC
:100D9A00F6070318F70A0030F707871CD52ED62E58
:100DAA00F72E0030F200F3000A128A1197250A1270
:100DBA008A113530F2000030F3000130F4000030BF
:100DCA00F5000A128A11A3250A128A118312031343
:100DDA008718F02EF12EEB2E0130F6070318F70ACA
:100DEA000030F707071DFA2EFB2E1C2F0030F200E9
:100DFA00F3000A128A1197250A128A113830F20072
:100E0A000030F3000130F4000030F5000A128A11B4
:100E1A00A3250A128A11831203130719152F162FF5
:100E2A00102F0130F6070318F70A0030F707871D5D
:100E3A001F2F202F412F0030F200F3000A128A11CF
:100E4A0097250A128A113030F2000030F30001307F
:100E5A00F4000030F5000A128A11A3250A128A1139
:100E6A008312031387193A2F3B2F352F0130F607C8
:100E7A000318F70A0030F7070A128A1191250A1295
:100E8A008A1183120313071C4B2F4C2F6D2F00302E
:100E9A00F200F3000A128A1197250A128A113330D6
:100EAA00F2000030F3000130F4000030F5000A12BD
:100EBA008A11A3250A128A11831203130718662FAF
:100ECA00672F612F0130F6070318F70A0030F7077A
:100EDA00871C702F712F922F0030F200F3000A1234
:100EEA008A1197250A128A113630F2000030F3006F
:100EFA000130F4000030F5000A128A11A3250A1203
:100F0A008A118312031387188B2F8C2F862F013097
:100F1A00F6070318F70A0030F707071D952F962FD3
:100F2A00B72F0030F200F3000A128A1197250A122D
:100F3A008A113930F2000030F3000130F400003039
:100F4A00F5000A128A11A3250A128A1183120313C1
:100F5A000719B02FB12FAB2F0130F6070318F70A84
:100F6A000030F7070A128A1185250A128A1183129C
:100F7A000313871DC12FC22F302E0A30760677043D
:100F8A00031DC82FC92FDB2FC030F2000030F30039
:100F9A000030F400F5000A128A11A3250A128A11F8
:100FAA000B300A128A11CF250A128A110A307606E4
:100FBA0077040319E12FE22F302EC030F2000030FF
:100FCA00F3000030F400F5000A128A11A3250A1270
:100FDA008A1101300A128A11CF250A128A11302E7B
:100FEA000A128A110028F601F701F801F9018301B2
:060FFA000A128A11F52D18
:00000001FF
