:060000000A128A11FA2F1A
:100E1E007418122F162F831203138816192F83128C
:100E2E00031388120813720886000A128A112227E9
:100E3E000A128A1108008312031388170D30F1006D
:100E4E00FB30F000F00B292FF10B292F2E2F8312E0
:100E5E00031388130D30F100FB30F000F00B352F2B
:100E6E00F10B352F3A2F08007108803AF4007708FD
:100E7E00803A7402031D452F76087002031C482F1A
:100E8E00492F4D2F83120313071787167108803AC7
:100E9E00F4007708803A7402031D572F760870020B
:100EAE0003185A2F5B2F6F2F7708803AF4007308C0
:100EBE00803A7402031D652F720876020318682F9C
:100ECE00692F6F2F831203130713871287170716C5
:100EDE007308803AF4007708803A7402031D792F64
:100EEE007608720203187C2F7D2F812F8312031335
:100EFE000713871208008316031387018312031347
:100F0E00870183160313860183120313860183164A
:100F1E0003138801831203138801831603178801B4
:100F2E0089013830F2000030F3000030F400F50093
:100F3E000A128A110F270A128A110E30F20000309F
:100F4E00F3000030F400F5000A128A110F270A127E
:100F5E008A118030F2000030F3000030F400F5000A
:100F6E000A128A110F270A128A11073083160313E9
:100F7E00810026308312031381000B1DC72FC82F4B
:100F8E00CF2F0130F6070318F70A0030F7070B11C1
:100F9E001430F0000030F1001430F2000030F30095
:100FAE000A128A113B270A128A110A30F000003009
:100FBE00F1000A30F2000030F3000A128A113B27CA
:100FCE000A128A112230F0000030F1002830F200AF
:100FDE000030F3000A128A113B270A128A11C42F1D
:100FEE000A128A110028F601F70183010A128A11EA
:020FFE00822F40
:00000001FF
