:060000000A128A11E82F2C
:100B7E007E088A007F0882000A128A11BF250A1297
:100B8E008A118000840A04087D0603190034FF0AC6
:100B9E000319FE0AC32D3F340034063400345B348F
:100BAE0000344F340034663400346D3400347D34F8
:100BBE000034073400347F3400346F340034831231
:100BCE0003133B08B9003A08B8000D2E8312031325
:100BDE003908FA003808F9000A128A1152260A1248
:100BEE008A11831203130518FD2DFE2D072E851C69
:100BFE00012E022E072E0130B4000030B5001B2E40
:100C0E000130B8070318B90A0030B9073D08803A19
:100C1E00FD003908803A7D02031D172E38083C026C
:100C2E0003181A2E1B2EED2D0800831203133B08FA
:100C3E00B7003A08B600432E831203133708FA00A2
:100C4E003608F9000A128A1152260A128A118312E4
:100C5E000313051C332E342E3D2E8518372E382EB9
:100C6E003D2E0230B4000030B500512EFF30B607D5
:100C7E000318B70AFF30B7073708803AFD003D0862
:100C8E00803A7D02031D4D2E3C0836020318502E6D
:100C9E00512E232E080083120313881408100A30D5
:100CAE00F0000030F1007A08F3007908F2000A1221
:100CBE008A11F4260A128A117008FB007B07203E67
:100CCE008400831300088312031387004130FC0055
:100CDE00EE30FB00FB0B712EFC0B712E000083120D
:100CEE000313081488100A30F0000030F1007A085F
:100CFE00F3007908F2000A128A119B260A128A1151
:100D0E007008FB007B07203E8400831300088312CB
:100D1E00031387004130FC00EE30FB00FB0B952ED9
:100D2E00FC0B952E00000800F601F31F9F2EA02E3F
:100D3E00A72EF209F309F20A0319F30AF601F60ACD
:100D4E00F11FAA2EAB2EB02EF009F109F00A0319ED
:100D5E00F10A700871040319B52EB62EE52EF501B1
:100D6E00F50AC42E01300310F00DF10DFF3E031DE8
:100D7E00BA2E0130F4007408F507F11FC72EC82EE5
:100D8E00B92E71087302031DCE2E70087202031C59
:100D9E00D12ED22ED82E7008F2027108031CF30346
:100DAE00F30201300310F10CF00CFF3E031DD92E9F
:100DBE000130F502031DE42EE52EC82E7608031928
:100DCE00E92EEA2EEF2EF209F309F20A0319F30ABD
:100DDE007308F1007208F0000800F601F11FF82EFA
:100DEE00F92E002FF009F109F00A0319F10AF601A4
:100DFE00F60AF31F032F042F0D2FF209F309F20A3F
:100E0E000319F30A0130F4007408F606F701F8012D
:100E1E00700871040319142F152F4C2FF501F50AC4
:100E2E00232F01300310F00DF10DFF3E031D192F7E
:100E3E000130F4007408F507F11F262F272F182F05
:100E4E0001300310F70DF80DFF3E031D282F71081A
:100E5E007302031D342F70087202031C372F382FB4
:100E6E003F2F7008F2027108031CF303F30277148C
:100E7E0001300310F10CF00CFF3E031D402F01302A
:100E8E00F502031D4B2F4C2F272F76080319502FD9
:100E9E00512F562FF709F809F70A0319F80A78089F
:100EAE00F1007708F0000800033083160313850065
:100EBE008312031385018316031387018312031311
:100ECE008701831603138801831203138801831687
:100EDE00031788018901831203130518772F782FC2
:100EEE00842F85187B2F7C2F842F34083504031D07
:100EFE00812F822F842F3F308700051C872F882F4C
:100F0E009E2F85188B2F8C2F9E2F34083504031D92
:100F1E00912F922F9E2F0030BA00BB006330BC0081
:100F2E000030BD000A128A11E6250A128A118312B8
:100F3E0003130518A32FA42FBA2F851CA72FA82F94
:100F4E00BA2F34083504031DAD2FAE2FBA2F6330E0
:100F5E00BA000030BB000030BC00BD000A128A117E
:100F6E001C260A128A11023083120313340635042A
:100F7E00031DC22FC32FCF2F3908BB003808BA006C
:100F8E000030BC00BD000A128A111C260A128A11FA
:100F9E008312031334033504031DD62FD72F722F5C
:100FAE003708BB003608BA006330BC000030BD0005
:100FBE000A128A11E6250A128A11722F0A128A1152
:100FCE00002883133430FD000530FE00D230FF00C0
:100FDE00203084000A128A11C3250A128A11B40124
:100FEE00B501B601B701B801B90183010A128A1120
:020FFE005B2F67
:00000001FF
