:060000000A128A110C280F
:10000800FE00030EF0000A08F1000A128A114A28BD
:100018000A128A110F2883010A128A1113288B17D2
:100028000B170B1601308316031386008312031374
:10003800860183160313870183120313870183162E
:10004800031789018312031387140630F400133051
:10005800F300AD30F200F20B2F28F30B2F28F40B2E
:100068002F2836288312031387100630F400133024
:10007800F300AD30F200F20B3F28F30B3F28F40BEE
:100088003F28462826280A128A110C288B1C4D283E
:100098004E2852288312031307148B1071088A0004
:0A00A800700E8300FE0E7E0E0900AC
:00000001FF
