:060000000A128A11F22F22
:100BC4007418E52DE92D831203138716EC2D831277
:100BD400031387120713720886000A128A11F52577
:100BE4000A128A1108008312031387171430F100C4
:100BF4007930F000F00BFC2DF10BFC2D012E83124B
:100C0400031387131430F1007930F000F00B082E31
:100C1400F10B082E0D2E08007108803AF4007D08AF
:100C2400803A7402031D182E7C087002031C1B2ECC
:100C34001C2E1F2E8312031307147108803AF4002C
:100C44007D08803A7402031D292E7C087002031863
:100C54002C2E2D2E302E83120313071073087D06BD
:100C6400031D362E72087C06031D392E3A2E3C2EA7
:100C7400FC01FD010800F601F31F412E422E492E0E
:100C8400F209F309F20A0319F30AF601F60AF11F4D
:100C94004C2E4D2E522EF009F109F00A0319F10AD7
:100CA400700871040319572E582E872EF501F50A82
:100CB400662E01300310F00DF10DFF3E031D5C2E76
:100CC4000130F4007408F507F11F692E6A2E5B2EBB
:100CD40071087302031D702E70087202031C732EB8
:100CE400742E7A2E7008F2027108031CF303F302C7
:100CF40001300310F10CF00CFF3E031D7B2E01307C
:100D0400F502031D862E872E6A2E760803198B2E74
:100D14008C2E912EF209F309F20A0319F30A7308CF
:100D2400F1007208F000080083120313A701F81FF2
:100D34009C2E9D2EA42EF709F809F70A0319F80A28
:100D4400A701A70AFA1FA72EA82EB12EF909FA099E
:100D5400F90A0319FA0A0130FB007B08A706A80167
:100D6400A901770878040319B82EB92EF02EA6012C
:100D7400A60AC72E01300310F70DF80DFF3E031D20
:100D8400BD2E0130FB007B08A607F81FCA2ECB2E10
:100D9400BC2E01300310A80DA90DFF3E031DCC2E5F
:100DA40078087A02031DD82E77087902031CDB2EFB
:100DB400DC2EE32E7708F9027808031CFA03FA0202
:100DC400281401300310F80CF70CFF3E031DE42E29
:100DD4000130A602031DEF2EF02ECB2E2708031997
:100DE400F42EF52EFA2EA809A909A80A0319A90AAE
:100DF4002908F8002808F700080083160313870160
:100E040083120313870183160313860183120313CA
:100E1400860183160317880189013830F2000030F7
:100E2400F3000030F400F5000A128A11E2250A12D8
:100E34008A110E30F2000030F3000030F400F500A7
:100E44000A128A11E2250A128A1139308312031315
:100E540090000B308F00DC308E00831203130C1CC7
:100E6400342F352FE12F0130FC070318FD0A003021
:100E7400FD076430F7000030F8007D08FA007C08B4
:100E8400F9000A128A1196260A128A117808831226
:100E94000313A5007708A4000A30F7000030F80017
:100EA4007D08F3007C08F2006430F0000030F100AB
:100EB4000A128A113D260A128A117108FA00700872
:100EC400F9000A128A1196260A128A1178088312E6
:100ED4000313A3007708A2000A30F0000030F100E9
:100EE4007D08F3007C08F2000A128A113D260A12DA
:100EF4008A11710883120313A1007008A0008030C6
:100F0400F2000030F3000030F400F5000A128A11F8
:100F1400E2250A128A11831203132408303EF200D8
:100F240025080318013E003EF3000130F4000030B0
:100F3400F5000A128A11E2250A128A118130F200A0
:100F44000030F3000030F400F5000A128A11E225A3
:100F54000A128A11831203132208303EF200230876
:100F64000318013E003EF3000130F4000030F500A8
:100F74000A128A11E2250A128A118230F200003024
:100F8400F3000030F400F5000A128A11E2250A1277
:100F94008A11831203132008303EF200210803183B
:100FA400013E003EF3000130F4000030F5000A1267
:100FB4008A11E2250A128A11831203130C101430C9
:100FC400F0000030F1002830F2000030F3000A1283
:100FD4008A110E260A128A112F2F0A128A1100284A
:100FE400FC01FD0183120313A001A101A201A301CD
:0C0FF400A401A50183010A128A11FF2E3E
:00000001FF
