:060000000A128A11EC2F28
:100E32008312031387120713720888000A128A1199
:100E420058270A128A110800831203138716071300
:100E5200720888000A128A1158270A128A11080099
:100E62007E088A007F0882000A128A1131270A123C
:100E72008A118000840A04087D0603190034FF0ADF
:100E82000319FE0A352F3F3400340F3400345B342B
:100E920000344F340034663400346D3400347D3411
:100EA2000034073400347F3400344F34003483126A
:100EB200031387170D30F100FB30F000F00B5F2FAA
:100EC200F10B5F2F642F8312031387130D30F10090
:100ED200FB30F000F00B6B2FF10B6B2F702F080023
:100EE200FF308316031385008312031385018316D3
:100EF20003138701831203138701831603138801E7
:100F0200831203138801831603178801890138307D
:100F1200F2000030F3000030F400F5000A128A11EA
:100F220019270A128A110E30F2000030F300003045
:100F3200F400F5000A128A1119270A128A11831283
:100F42000313051CA52FA62FA02FF701F801DA2FF6
:100F52008030F2000030F3000030F400F5000A1295
:100F62008A1119270A128A117708F6007607203E9D
:100F7200840083130008F200840A0008F3000A12B6
:100F82008A1125270A128A110130F9070318FA0A71
:100F92000030FA070A3079067A04031DD12FD22FC6
:100FA200D42FF901FA010130F7070318F80A0030CB
:100FB200F8077A08803AF6007808803A7602031D2C
:100FC200E42F770879020318E72FE82FA92FA02F23
:100FD2000A128A11002883133430FD000730FE0004
:100FE2004430FF00203084000A128A1135270A1289
:0E0FF2008A11F901FA0183010A128A11712F86
:00000001FF
