:060000000A128A11F42F20
:100B22007418942D982D8312031387169B2D83120C
:100B3200031387120713720888000A128A11A42568
:100B42000A128A1108008312031387178230F100F8
:100B5200DD30F000F00BAB2DF10BAB2DB02D83127D
:100B6200031387138230F100DD30F000F00BB72D54
:100B7200F10BB72DBC2D080001308316031385003D
:100B82008312031385018316031387018312031350
:100B920087018316031388018312031388018316C6
:100BA200031788013830F2000030F3000030F400FF
:100BB200F5000A128A1191250A128A110E30F200EA
:100BC2000030F3000030F400F5000A128A1191257A
:100BD2000A128A110A128A11B6260A128A11EB2DFA
:100BE2000A128A110028F601F31FF82DF92D002EA2
:100BF200F209F309F20A0319F30AF601F60AF11FE0
:100C0200032E042E092EF009F109F00A0319F10A44
:100C12007008710403190E2E0F2E3E2EF501F50AEF
:100C22001D2E01300310F00DF10DFF3E031D132E9A
:100C32000130F4007408F507F11F202E212E122E28
:100C420071087302031D272E70087202031C2A2EDC
:100C52002B2E312E7008F2027108031CF303F302EB
:100C620001300310F10CF00CFF3E031D322E013057
:100C7200F502031D3D2E3E2E212E76080319422E2B
:100C8200432E482EF209F309F20A0319F30A7308F4
:100C9200F1007208F000080083120313A101F81F8B
:100CA200532E542E5B2EF709F809F70A0319F80A96
:100CB200A101A10AFA1F5E2E5F2E682EF909FA0918
:100CC200F90A0319FA0A0130FB007B08A106A20106
:100CD200A3017708780403196F2E702EA72EA001A6
:100CE200A00A7E2E01300310F70DF80DFF3E031D02
:100CF200742E0130FB007B08A007F81F812E822E84
:100D0200732E01300310A20DA30DFF3E031D832E8F
:100D120078087A02031D8F2E77087902031C922E1F
:100D2200932E9A2E7708F9027808031CFA03FA0226
:100D3200221401300310F80CF70CFF3E031D9B2E0A
:100D42000130A002031DA62EA72E822E2108031910
:100D5200AB2EAC2EB12EA209A309A20A0319A30A33
:100D62002308F8002208F7000800831603139F01E6
:100D72008130831203139F009F149F18C12EC22E2D
:100D8200BE2E1E08FC00FD017C08B0007D08B100EB
:100D9200831603131E08FC00FD017C088312031353
:100DA200B2007D08B30032083304031DD92EDA2EB7
:100DB200E72E3108AF003008AE002F08A5002E083C
:100DC200A4000A128A1135270A128A118312031308
:100DD20032033304031DEE2EEF2E002F3008803E27
:100DE200AE0031080318013EFF3EAF002F08A500F8
:100DF2002E08A4000A128A1135270A128A1102301B
:100E02008312031332063304031D082F092F1A2FEE
:100E12003008C03EAE0031080318013EFF3EAF006D
:100E22002F08A5002E08A4000A128A1135270A12DB
:100E32008A1103308312031332063304031D222F57
:100E4200232F342F3008E03EAE0031080318013E54
:100E5200FF3EAF002F08A5002E08A4000A128A1137
:100E620035270A128A1108008030F2000030F300A0
:100E72000030F400F5000A128A1191250A128A1133
:100E8200E830F7000330F800831203132508FA0054
:100E92002408F9000A128A114D260A128A117808CA
:100EA20083120313A7007708A6006430F70000300E
:100EB200F8002508F3002408F200E830F0000330BF
:100EC200F1000A128A11F4250A128A117108FA0035
:100ED2007008F9000A128A114D260A128A1178083E
:100EE20083120313A9007708A8000A30F700003024
:100EF200F8002508F3002408F2006430F000003006
:100F0200F1000A128A11F4250A128A117108FA00F4
:100F12007008F9000A128A114D260A128A117808FD
:100F220083120313AB007708AA000A30F0000030E6
:100F3200F1002508F3002408F2000A128A11F425B0
:100F42000A128A11710883120313AD007008AC00F3
:100F52002608303EF20027080318013E003EF30047
:100F62000130F4000030F5000A128A1191250A12AC
:100F72008A11831203132808303EF200290803184D
:100F8200013E003EF3000130F4000030F5000A1289
:100F92008A1191250A128A11831203132A08303EFC
:100FA200F2002B080318013E003EF3000130F4006A
:100FB2000030F5000A128A1191250A128A11831251
:100FC20003132C08303EF2002D080318013E003EA8
:100FD200F3000130F4000030F5000A128A11912565
:100FE2000A128A11080083120313AE01AF01B00185
:0E0FF200B101B201B30183010A128A11BD2DB3
:00000001FF
