:100000000A128A11EC2F00308A000408840A820741
:100010000034773465346C3463346F346D34653454
:1000200074346F346434613472346B3477346F34C5
:1000300072346C3464340034773472346F346E3418
:100040006734703461347334733477346F3472349A
:1000500064340034703461347334733477346F34FF
:10006000723464343A340034753473346534723421
:100070006E3461346D3465343A34003469346E342E
:0C008000763461346C346934643400342C
:1009C00083120313881008110814080083120313FC
:1009D00008100811881408008312031388100810E7
:1009E000081508007418F52CF92C831203138816C7
:1009F000FC2C8312031388120813720886000A1253
:100A00008A112C250A128A1108007E088A007F08A4
:100A100082000A128A1105250A128A118000840AAE
:100A200004087D0603190034FF0A0319FE0A092D84
:100A30003034003431340034323400343334003450
:100A40003434003435340034363400343734003430
:100A50003834003439340034831203138817823059
:100A6000F100DD30F000F00B332DF10B332D382D7C
:100A70008312031388138230F100DD30F000F00B95
:100A80003F2DF10B3F2D442D0800F401F501701CA2
:100A90004A2D4B2D512D7208F4070318F50A7308DF
:100AA000F50701300310F20DF30DFF3E031D522D2B
:100AB00001300310F10CF00CFF3E031D592D70089E
:100AC0007104031D642D652D472D7508F100740810
:100AD000F0000800F3008312031388160813832D17
:100AE000730884000A128A1103200A128A118312E1
:100AF000031386000130F2007208F3070A128A110C
:100B00002C250A128A11730884000A128A11032004
:100B10000A128A11003A031D8E2D8F2D702D0800A8
:100B20000A128A11E0240A128A1183120313071889
:100B30009A2D9B2DA32D87189E2D9F2DA32D071D2C
:100B4000A22DA32DC22D0130F6000030F700043095
:100B5000F8000030F9000730FA000030FB000A12FC
:100B60008A1127260A128A11831203130718B92D36
:100B7000BA2DB42D8718BD2DBE2DB42D0719C12D4A
:100B8000C22DB42D0A128A11E6240A128A11831288
:100B900003130718CC2DCD2DD52D8718D02DD12D91
:100BA000D52D071DD42DD52DF42D0230F6000030A3
:100BB000F7000530F8000030F9000830FA00003086
:100BC000FB000A128A1127260A128A1183120313C4
:100BD0000718EB2DEC2DE62D8718EF2DF02DE62DC7
:100BE0000719F32DF42DE62D0A128A11EC240A12AE
:100BF0008A11831203130718FE2DFF2D072E871865
:100C0000022E032E072E071D062E072E262E03303A
:100C1000F6000030F7000630F8000030F900093027
:100C2000FA000030FB000A128A1127260A128A11E4
:100C30008312031307181D2E1E2E182E8718212E1F
:100C4000222E182E0719252E262E182E0800831264
:100C50000313B701B801071C2E2E2F2E662E76081F
:100C6000A0002007393E840083130008F200840AA4
:100C70000008F3000130F4000030F5000A128A1178
:100C8000F2240A128A11770883120313A40076084B
:100C9000A3004E08F1004D08F0000A30F2000030C9
:100CA000F3000A128A1145250A128A1183120313CE
:100CB00023087007CD0024080318240A7107CE000A
:100CC0000130B7070318B80A0030B807871C692E2F
:100CD0006A2EB22E7808A0002007393E84008313C4
:100CE0000008F200840A0008F3000130F40000302C
:100CF000F5000A128A11F2240A128A1183120313D0
:100D00003708A0002007233E840078088313800062
:100D1000840A790880003708A0002007233E840059
:100D20000008A100840A0008A2004E08F1004D0846
:100D3000F0000A30F2000030F3000A128A11452553
:100D40000A128A118312031321087007CD002208AA
:100D50000318220A7107CE000130B7070318B80A3A
:100D60000030B807071DB52EB62EFE2E7A08A0005B
:100D70002007393E840083130008F200840A00082B
:100D8000F3000130F4000030F5000A128A11F22459
:100D90000A128A11831203133708A0002007233E8A
:100DA00084007A0883138000840A7B088000370857
:100DB000A0002007233E84000008A100840A000848
:100DC000A2004E08F1004D08F0000A30F200003099
:100DD000F3000A128A1145250A128A11831203139D
:100DE00021087007CD0022080318220A7107CE00DF
:100DF0000130B7070318B80A0030B8070800831697
:100E000003138601831203138601FF308316031335
:100E1000870083120313870183160313880183124B
:100E2000031388018316031788013830F20000305D
:100E3000F3000030F400F5000A128A11F2240A12BD
:100E40008A110E30F2000030F3000030F400F5009B
:100E50000A128A11F2240A128A11FC01FD017C088F
:100E60007D04031D342F352F502F8030F2000030C9
:100E7000F3000030F400F5000A128A11F2240A127D
:100E80008A112C300A128A116A250A128A1101303D
:100E9000FC000030FD000A128A1190250A128A1106
:100EA0000A128A1190250A128A1183120313871DD0
:100EB0005A2F5B2F9C2F7B304D064E04031D612F54
:100EC000622F7E2FC230F2000030F3000030F400B9
:100ED000F5000A128A11F2240A128A1122300A122B
:100EE0008A116A250A128A1183120313CD01CE01D9
:100EF0000A128A1190250A128A119C2F0130F200E1
:100F00000030F3000030F400F5000A128A11F224D8
:100F10000A128A11C330F2000030F3000030F400EE
:100F2000F5000A128A11F2240A128A1136300A12C6
:100F30008A116A250A128A1183120313871DA12FB1
:100F4000A22F2F2FC8304D06031DAA2F4E03031DBD
:100F5000AA2FAB2FCA2FC030F2000030F3000030B0
:100F6000F400F5000A128A11F2240A128A110130E3
:100F7000F2000030F3000030F400F5000A128A118C
:100F8000F2240A128A1101300A128A116A250A1201
:100F90008A112F2F0130F2000030F3000030F400EE
:100FA000F5000A128A11F2240A128A11C530F200E1
:100FB0000030F3000030F400F5000A128A11F22428
:100FC0000A128A1114300A128A116A250A128A1129
:100FD0002F2F0A128A11002883134D30FD0005308F
:100FE000FE001830FF00393084000A128A110925EA
:100FF0000A128A11CD01CE0183010A128A11FF2E35
:00000001FF
