:060000000A128A11FC2F18
:100F5E00073083160313850083120313850183164E
:100F6E000313870183120313870183160317880166
:100F7E0089010130F2000030F300F401F501831213
:100F8E000313051CCB2FCC2FD62F7218CF2FD32F98
:100F9E00831203130714D62F831203130710851C15
:100FAE00D92FDA2FE42F7418DD2FE12F83120313BC
:100FBE000714E42F831203130710051DE72FE82FE4
:100FCE00F42F7308F1007208F0007508F30074082E
:100FDE00F2007108F5007008F4000519F72FF82FCC
:100FEE00F42FC62F0A128A11002883010A128A11C1
:020FFE00AF2F13
:00000001FF
