:060000000A128A11F22F22
:100028008A30F2000030F3000030F400F5000A12C4
:100038008A152F240A128A118030831603139F0011
:100048008530831203139F009F149F182C282D2896
:1000580029281E08FC00FD017C08E4007D08E50055
:10006800831603131E08FC00FD017C08831203138A
:10007800E6007D08E70064086504031D4428452858
:1000880052286708E1006608E0006108A5006008DA
:10009800A4000A128A1593260A128A1183120313DE
:1000A80064036504031D59285A286B286608003E16
:1000B800E00067080318013E013EE1006108A50061
:1000C8006008A4000A128A1593260A128A110230BF
:1000D8008312031364066504031D73287428852896
:1000E8006608003EE00067080318013E023EE10092
:1000F8006108A5006008A4000A128A1593260A124E
:100108008A1103308312031364066504031D8D28C6
:100118008E289F286608003EE00067080318013E05
:10012800033EE1006108A5006008A4000A128A15D0
:1001380093260A128A110800C030F2000030F3003A
:100148000030F400F5000A128A152F240A128A11C9
:10015800443083120313BD007F30BC00C030BB00A5
:100168000030BA004030A300A030A2000030A10047
:100178000030A0006208F0006308F1000030F11BB5
:10018800FF30F200F30001300A128A1546270A12DE
:100198008A11730883120313A7007208A600710856
:1001A800A5007008A4000A128A1191240A128A1163
:1001B800831203132308C1002208C0002108BF00CE
:1001C8002008BE000A128A11B4220A128A11831268
:1001D80003133D08D7003C08D6003B08D5003A0871
:1001E800D4005708A7005608A6005508A5005408CB
:1001F800A4004230A300C830A2000030A1000030A3
:10020800A0000A128A1191240A128A118312031378
:100218002308BD002208BC002108BB002008BA0042
:100228000A128A158B250A128A11831203133B08B6
:10023800DF003A08DE006430F7000030F8005F089D
:10024800FA005E08F9000A128A1522250A128A1194
:10025800780883120313D9007708D8000A30F7000A
:100268000030F8005F08F3005E08F2006430F00028
:100278000030F1000A128A15C9240A128A1171087D
:10028800FA007008F9000A128A1522250A128A1142
:10029800780883120313DB007708DA000A30F000CD
:1002A8000030F1005F08F3005E08F2000A128A15B8
:1002B800C9240A128A11710883120313DD00700819
:1002C800DC005808303EF20059080318013E003E91
:1002D800F3000130F4000030F5000A128A152F24CB
:1002E8000A128A112E30F2000030F3000130F400B7
:1002F8000030F5000A128A152F240A128A11831277
:1003080003135A08303EF2005B080318013E003E12
:10031800F3000130F4000030F5000A128A152F248A
:100328000A128A11831203135C08303EF2005D083A
:100338000318013E003EF3000130F4000030F500E0
:100348000A128A152F240A128A110800CA30F200EC
:100358000030F3000030F400F5000A128A152F244B
:100368000A128A11443083120313BD007F30BC0087
:10037800C030BB000030BA004030A300A030A2005B
:100388000030A1000030A0006008F0006108F10012
:100398000030F11BFF30F200F30001300A128A1519
:1003A80046270A128A11730883120313A7007208DA
:1003B800A6007108A5007008A4000A128A119124E9
:1003C8000A128A11831203132308C1002208C000ED
:1003D8002108BF002008BE000A128A11B4220A129E
:1003E8008A11831203133D08D7003C08D6003B0846
:1003F800D5003A08D4005708A7005608A6005508A3
:10040800A5005408A4004230A300C830A200003060
:10041800A1000030A0000A128A1191240A128A1140
:10042800831203132308BD002208BC002108BB0067
:100438002008BA000A128A158B250A128A1183121B
:1004480003133B08DF003A08DE006430F700003091
:10045800F8005F08FA005E08F9000A128A152225DA
:100468000A128A11780883120313D9007708D80072
:100478000A30F7000030F8005F08F3005E08F20069
:100488006430F0000030F1000A128A15C9240A12FB
:100498008A117108FA007008F9000A128A152225D3
:1004A8000A128A11780883120313DB007708DA002E
:1004B8000A30F0000030F1005F08F3005E08F20037
:1004C8000A128A15C9240A128A11710883120313A1
:1004D800DD007008DC005808303EF20059080318A7
:1004E800013E003EF3000130F4000030F5000A122E
:1004F8008A152F240A128A112E30F2000030F300D8
:100508000130F4000030F5000A128A152F240A126F
:100518008A11831203135A08303EF2005B0803184D
:10052800013E003EF3000130F4000030F5000A12ED
:100538008A152F240A128A11831203135C08303E8D
:10054800F2005D080318013E003EF3000130F4009C
:100558000030F5000A128A152F240A128A110800A1
:100568008312031341088039C2004208CB004108B6
:10057800C2004207C3004308D200C01FC42AC52ACC
:10058800C62A521452080319CA2ACB2ADB2A520A4D
:10059800031DCF2AD02AD82A0030C1000030C0005D
:1005A8000030BF000030BE00C017C101E32A003090
:1005B800C1000030C0000030BF000030BE003D0860
:1005C8008039C2004208CB063D08C2004207C3007A
:1005D8004308D300BC1FF12AF22AF32A5314530804
:1005E8000319F72AF82A082B530A031DFC2AFD2AA7
:1005F800052B0030BD000030BC000030BB000030CF
:10060800BA00BC17BD01102B0030BD000030BC0083
:100618000030BB000030BA003D083C043B043A04FB
:10062800031D172B182B312B0030C1000030C000E0
:100638000030BF000030BE008030C0047F30C104ED
:100648004B08C2004208C1044108BD004008BC0074
:100658003F08BB003E08BA00902C5208031D352BFA
:10066800362B3F2B0030BD000030BC000030BB00F3
:100678000030BA00902C5208C200C3014308C500DC
:1006880053084202C400031CC50344087F3ECC0043
:1006980045080318013E003ECD004108CA00400845
:1006A800C9003F08C8003E08C7000030C10000303C
:1006B800C0000030BF000030BE000030D100003064
:1006C800D0000030CF000030CE00D301B52B530846
:1006D80003196F2B702B902B0130C2000310C70D2C
:1006E800C80DC90DCA0DC20B722B0130C200031010
:1006F800BE0DBF0DC00DC10DC20B7B2BD11F852BAD
:10070800862B872B3E140130C2000310CE0DCF0D6F
:10071800D00DD10DC20B892B3D084A02031D9E2B1B
:100728003C084902031D9E2B3B084802031D9E2BD3
:100738003A084702031CA12BA22BB12B51173A08E8
:10074800C7023B08031C3B0FC8023C08031C3C0FB4
:10075800C9023D08031C3D0FCA020130C20042080D
:10076800D3071A305302031CBA2BBB2B6B2B4A0836
:100778004904480447040319C22BC32BE22B4E1427
:10078800E22B0130C2000310BE0DBF0DC00DC10D1C
:10079800C20BC72BD11FD12BD22BD32B3E14013028
:1007A800C2000310CE0DCF0DD00DD10DC20BD52B2D
:1007B800FF30CC070318CD0AFF30CD07C01FE52B4B
:1007C800E62BC52BD301D11FEA2BEB2B072CFF30CF
:1007D8004E05C200FF304F05C300FF305005C4006E
:1007E8007F305105C50045084404430442040319F9
:1007F800FE2BFF2B022CD301D30A072C3E1C052C01
:10080800062C072CFF2B530803190B2C0C2C3D2C02
:100818000130BE07003003180130BF07003003184D
:100828000130C007003003180130C107411C1D2CDE
:100838001E2C3D2C3E08C2003F08C3004008C400DF
:100848004108C5000130C600450DC50CC40CC30CD9
:10085800C20CC60B282C4508C1004408C000430838
:10086800BF004208BE000130CC070318CD0A003093
:10087800CD074D08803AFF0080307F02031D462CCB
:10088800FF304C02031C492C4A2C582CFF30831291
:100898000313CC000030CD000030C1000030C00090
:1008A8000030BF000030BE00831203134D08803AA9
:1008B800FF0080307F02031D632C01304C020318B7
:1008C800662C672C742C83120313CC01CD010030E5
:1008D800C1000030C0000030BF000030BE00CB01B6
:1008E800831203134C08C2004208D200521C7D2C0C
:1008F8007E2C802CC017842C7F30C2004208C00593
:100908005208C2000310420CC3004308C1004B0840
:10091800C2004208C104282B0800831203132308CD
:100928008039A8002808AD002308A8002807A900D6
:100938002908B300A21FA12CA22CA32C331433081E
:100948000319A72CA82CB72C330A031DAC2CAD2CEB
:10095800B52C0030A3000030A2000030A100003008
:10096800A000A217BF2C0030A3000030A200003066
:10097800A1000030A00027088039A8002808AD068B
:100988002708A8002807A9002908B200A61FCD2C0F
:10099800CE2CCF2C321432080319D32CD42CE32CB0
:1009A800320A031DD82CD92CE12C0030A7000030C6
:1009B800A6000030A5000030A400A617EB2C0030DC
:1009C800A7000030A6000030A5000030A4003208BF
:1009D8000319EF2CF02CF52C3308031DF42CF52CFF
:1009E800FE2C0030A3000030A2000030A10000302F
:1009F800A000F12F2008A8002808F00026080A12F5
:100A08008A155B240A128A11710883120313B9002C
:100A18007008B8003808A800A901AA01AB012B0882
:100A2800B1002A08B0002908AF002808AE0039082C
:100A3800A800A901AA01AB012B08B7002A08B60033
:100A48002908B5002808B4002108A8002808F000E3
:100A580025080A128A155B240A128A117108831262
:100A68000313B9007008B8003808A800A901AA0142
:100A7800AB012808AE07290803110318013E031922
:100A8800462DAF072A0803110318013E03194D2DFF
:100A9800B0072B0803110318013E0319542DB107A1
:100AA8003908A800A901AA01AB012808B407290838
:100AB80003110318013E0319622DB5072A08031113
:100AC8000318013E0319692DB6072B0803110318F3
:100AD800013E0319702DB7072208A8002808F00066
:100AE80024080A128A155B240A128A1171088312D3
:100AF8000313B9007008B8003808A800A901AA01B2
:100B0800AB012808AE07290803110318013E031991
:100B18008E2DAF072A0803110318013E0319952DDE
:100B2800B0072B0803110318013E03199C2DB107C8
:100B38003908A800A901AA01AB012808B4072908A7
:100B480003110318013E0319AA2DB5072A0803113A
:100B58000318013E0319B12DB6072B08031103181A
:100B6800013E0319B82DB7070830A8000310AE0DD1
:100B7800AF0DB00DB10DA80BBA2D2108A80028089B
:100B8800F00024080A128A155B240A128A117108D7
:100B980083120313B9007008B8003808A800390890
:100BA800A900AA01AB012808AE07290803110318F8
:100BB800013E0319E02DAF072A0803110318013E6F
:100BC8000319E72DB0072B0803110318013E031979
:100BD800EE2DB1072008A8002808F00025080A1201
:100BE8008A155B240A128A11710883120313B9004B
:100BF8007008B8003808A8003908A900AA01AB0194
:100C08002808AE07290803110318013E03190D2E01
:100C1800AF072A0803110318013E0319142EB00761
:100C28002B0803110318013E03191B2EB1070830C6
:100C3800A8000310AE0DAF0DB00DB10DA80B1D2E01
:100C48002008A8002808F00024080A128A155B2446
:100C58000A128A11710883120313B9007008B800C8
:100C68003808A8003908A900AA01AB012808AE076E
:100C7800290803110318013E0319432EAF072A0858
:100C880003110318013E03194A2EB0072B0803115C
:100C98000318013E0319512EB1072108A80028089E
:100CA800F00026080A128A155B240A128A117108B4
:100CB80083120313B9007008B8003808A80039086F
:100CC800A900AA01AB012808B407290803110318D1
:100CD800013E0319702EB5072A0803110318013EB7
:100CE8000319772EB6072B0803110318013E0319C1
:100CF8007E2EB7072208A8002808F00025080A1247
:100D08008A155B240A128A11710883120313B90029
:100D18007008B8003808A8003908A900AA01AB0172
:100D28002808B407290803110318013E03199D2E4A
:100D3800B5072A0803110318013E0319A42EB607A4
:100D48002B0803110318013E0319AB2EB70722081D
:100D5800A8002808F00026080A128A155B240A123F
:100D68008A11710883120313B9007008B800380893
:100D7800A8003908A900AA01AB0108300310A80D82
:100D8800A90DAA0DAB0DFF3E031DC22E2808B407FE
:100D9800290803110318013E0319D32EB5072A08A1
:100DA80003110318013E0319DA2EB6072B080311A5
:100DB8000318013E0319E12EB7072E08A8002F08D3
:100DC800A9003008AA003108AB0018300310AB0C9A
:100DD800AA0CA90CA80CFF3E031DEA2E2808B4078C
:100DE800290803110318013E0319FB2EB5072A0829
:100DF80003110318013E0319022FB6072B0803112C
:100E08000318013E0319092FB7070830A80003107B
:100E1800AE0DAF0DB00DB10DA80B0B2F3308320777
:100E2800A800A901A90D2808823EB80029080318BE
:100E3800013EFF3EB9003D2F0130A8000310B40D5C
:100E4800B50DB60DB70DA80B222FB11F2C2F2D2FC6
:100E58002E2F34140130A8000310AE0DAF0DB00DC5
:100E6800B10DA80B302FFF30B8070318B90AFF30AF
:100E7800B907B61F402F412F202FB201B11F452FB0
:100E8800462F622FFF302E05A800FF302F05A9003E
:100E9800FF303005AA007F303105AB002B082A044B
:100EA800290428040319592F5A2F5D2FB201B20AB9
:100EB800622F341C602F612F622F5A2F32080319BA
:100EC800662F672F982F0130B407003003180130C0
:100ED800B507003003180130B60700300318013099
:100EE800B707371C782F792F982F3408A8003508B2
:100EF800A9003608AA003708AB000130AC002B0D5A
:100F0800AB0CAA0CA90CA80CAC0B832F2B08B700B0
:100F18002A08B6002908B5002808B4000130B80727
:100F28000318B90A0030B9073908803AFF00803041
:100F38007F02031DA12FFF303802031CA42FA52F09
:100F4800B02F7F3083120313B7008030B600003013
:100F5800B5000030B400E52F831203133908803A36
:100F6800FF0080307F02031DBB2F013038020318B9
:100F7800BE2FBF2FCB2F003083120313B7000030D2
:100F8800B6000030B5000030B400AD01E52F831283
:100F980003133808A8002808B300FF30B405FF3051
:100FA800B5057F30B6050030B705331CDC2FDD2FC3
:100FB800DE2FB6173308A8000310280CA90029084B
:100FC800B7002D08A8002808B7043708A30036087A
:100FD800A2003508A1003408A000080083120313FA
:100FE800E001E101E201E301E401E501E601E701D5
:080FF80083010A128A15822C04
:10185E007418322C362C831203138716392C8312EC
:10186E00031387120713720888000A128A1542247E
:10187E000A128A1508008312031387178230F100AB
:10188E00DD30F000F00B492CF10B492C4E2C83125D
:10189E00031387138230F100DD30F000F00B552C6E
:1018AE00F10B552C5A2C0800F800F401F5017008C4
:1018BE00F200F3017208F6007308F700781C682C2A
:1018CE00692C6F2C7608F4070318F50A7708F507CC
:1018DE0001300310F60DF70DFF3E031D702C0310A3
:1018EE00F80C7808031D7C2C7D2C652C7508F100F6
:1018FE007408F0000800033083160313850083126A
:10190E0003138501831603138701831203138701C3
:10191E008316031388018312031388010330831681
:10192E00031788003830F2000030F3000030F40066
:10193E00F5000A128A152F240A128A150E30F200AB
:10194E000030F3000030F400F5000A128A152F243F
:10195E000A128A150A128A1507260A128A150A12FF
:10196E008A1114200A128A150A128A11A0200A124C
:10197E008A150A128A11AA210A128A15B12C0A1284
:10198E008A110028F601F31FCD2CCE2CD52CF2098E
:10199E00F309F20A0319F30AF601F60AF11FD82C1D
:1019AE00D92CDE2CF009F109F00A0319F10A70089E
:1019BE0071040319E32CE42C132DF501F50AF22C16
:1019CE0001300310F00DF10DFF3E031DE82C013028
:1019DE00F4007408F507F11FF52CF62CE72C7108AE
:1019EE007302031DFC2C70087202031CFF2C002DC9
:1019FE00062D7008F2027108031CF303F302013086
:101A0E000310F10CF00CFF3E031D072D0130F50203
:101A1E00031D122D132DF62C76080319172D182DD4
:101A2E001D2DF209F309F20A0319F30A7308F100E6
:101A3E007208F000080083120313A101F81F282D6D
:101A4E00292D302DF709F809F70A0319F80AA10113
:101A5E00A10AFA1F332D342D3D2DF909FA09F90A81
:101A6E000319FA0A0130FB007B08A106A201A301AB
:101A7E00770878040319442D452D7C2DA001A00A6A
:101A8E00532D01300310F70DF80DFF3E031D492DA8
:101A9E000130FB007B08A007F81F562D572D482D4F
:101AAE0001300310A20DA30DFF3E031D582D780823
:101ABE007A02031D642D77087902031C672D682DA9
:101ACE006F2D7708F9027808031CFA03FA02221424
:101ADE0001300310F80CF70CFF3E031D702D013082
:101AEE00A002031D7B2D7C2D572D21080319802D5F
:101AFE00812D862DA209A309A20A0319A30A230880
:101B0E00F8002208F70008000310831203133C0D9F
:101B1E003D0DBE003E08C4004408031D972D982DB0
:101B2E00A12D0030BD000030BC000030BB000030E5
:101B3E00BA00062E3A08BE003B08BF003C08C000A3
:101B4E003D08C1001F300310C10CC00CBF0CBE0CF1
:101B5E00FF3E031DAA2D3E08C2004208C300BC175B
:101B6E00FF30BA05FF30BB05FF30BC050030BD05A8
:101B7E009630C402C41FC42DC52DDF2D4408803AF3
:101B8E00973E0318CB2DCC2DCD2D982D0130031063
:101B9E00BD0CBC0CBB0CBA0CFF3E031DCE2D013090
:101BAE00BE003E08C407031DDD2DDE2DCD2DF62D06
:101BBE0020304402031CE42DE52DF12D982D01302B
:101BCE00BE000310BA0DBB0DBC0DBD0DBE0BE82D36
:101BDE000130C4024408031DF52DF62DE62D4308F1
:101BEE000319FA2DFB2D062EBA09BB09BC09BD0936
:101BFE00BA0A0319BB0A0319BC0A0319BD0A080065
:101C0E008030F2000030F3000030F400F5000A12CC
:101C1E008A152F240A128A158030831603139F000B
:101C2E008130831203139F009F149F181F2E202EA6
:101C3E001C2E1E08FC00FD017C08E4007D08E5005A
:101C4E00831603131E08FC00FD017C088312031388
:101C5E00E6007D08E70064086504031D372E382E64
:101C6E00452E6708E3006608E2006308A5006208D7
:101C7E00A4000A128A1593260A128A1583120313D8
:101C8E0064036504031D4C2E4D2E5E2E6608003E29
:101C9E00E20067080318013E013EE3006308A50059
:101CAE006208A4000A128A1593260A128A150230B7
:101CBE008312031364066504031D662E672E782EA9
:101CCE006608003EE20067080318013E023EE3008C
:101CDE006308A5006208A4000A128A1593260A1248
:101CEE008A1503308312031364066504031D802EC8
:101CFE00812E922E6608003EE20067080318013E10
:101D0E00033EE3006308A5006208A4000A128A15C8
:101D1E0093260A128A150800E830F7000330F800FF
:101D2E00831203132508FA002408F9000A128A15F3
:101D3E0022250A128A15780883120313A700770842
:101D4E00A6006430F7000030F8002508F3002408E0
:101D5E00F200E830F0000330F1000A128A15C924AF
:101D6E000A128A157108FA007008F9000A128A150B
:101D7E0022250A128A15780883120313A900770800
:101D8E00A8000A30F7000030F8002508F3002408F8
:101D9E00F2006430F0000030F1000A128A15C924F6
:101DAE000A128A157108FA007008F9000A128A15CB
:101DBE0022250A128A15780883120313AB007708BE
:101DCE00AA000A30F0000030F1002508F3002408C4
:101DDE00F2000A128A15C9240A128A157108831292
:101DEE000313AD007008AC002608303EF200270841
:101DFE000318013E003EF3000130F4000030F50000
:101E0E000A128A152F240A128A1583120313280820
:101E1E00303EF20029080318013E003EF300013067
:101E2E00F4000030F5000A128A152F240A128A15C2
:101E3E00831203132A08303EF2002B080318013ECA
:101E4E00003EF3000130F4000030F5000A128A154E
:101E5E002F240A128A15831203132C08303EF20027
:101E6E002D080318013E003EF3000130F40000304F
:101E7E00F5000A128A152F240A128A150800F80096
:101E8E00780803194B2F4C2F602FF31F4F2F502F15
:101E9E00602F7009FA007109FB007209FC007309CA
:101EAE00FD00FA0A0319FB0A0319FC0A0319FD0ABD
:101EBE00682F7308FD007208FC007108FB007008A3
:101ECE00FA007308720471047004031D6F2F702FD3
:101EDE00792F0030F3000030F2000030F1000030B6
:101EEE00F000FF2F9630F4007408F9008B2F0130AC
:101EFE00F4007408F90701300310FD0CFC0CFB0C08
:101F0E00FA0CFF3E031D832FFE307D05031D902F1F
:101F1E00912F7E2FAD2F0130F4007408F907013098
:101F2E00FA07003003180130FB07003003180130A8
:101F3E00FC07003003180130FD0701300310FD0CC3
:101F4E00FC0CFB0CFA0CFF3E031DA52FFF307D058C
:101F5E00031DB22FB32F922FBF2F0130F902013084
:101F6E00F4000310FA0DFB0DFC0DFD0DF40BB82F54
:101F7E00FC1BC22FC32FC92F023079020318C82FA2
:101F8E00C92FB42F7918CC2FCD2FD52FFF30FA05AE
:101F9E00FF30FB057F30FC05FF30FD050310F90C0B
:101FAE007908F400F501F601F70118300310F40D6D
:101FBE00F50DF60DF70DFF3E031DDD2F7408FA0427
:101FCE007508FB047608FC047708FD0478080319ED
:101FDE00F12FF22FF72FF31FF52FF62FF72FFD17F7
:101FEE007D08F3007C08F2007B08F1007A08F0000F
:021FFE000800D9
:00000001FF
