:060000000A128A11FC2F18
:100DCE00FF30F0070318F10AFF30F107700A031D18
:100DDE00F42E710A031DF42EF52EE72E080083164D
:100DEE0003138501831203138501831603138601F2
:100DFE0083120313860183160313870183120313D1
:100E0E008701831603138801831203138801831647
:100E1E0003138901831203138901831603178801B3
:100E2E008901F301F4017408803AFF0080307F02DB
:100E3E00031D232F09307302031C262F272F282F63
:100E4E00452F0130F200730A2E2F0310F20DFF3ED4
:100E5E00031D2C2F7208831203138500E830F00057
:100E6E000330F1000A128A11E7260A128A110130A4
:100E7E00F3070318F40A0030F4071A2FF501F601F0
:100E8E007608803AFF0080307F02031D502F093014
:100E9E007502031C532F542F552F722F0130F20061
:100EAE00750A5B2F0310F20DFF3E031D592F7208BA
:100EBE00831203138600E830F0000330F1000A12AB
:100ECE008A11E7260A128A110130F5070318F60A6D
:100EDE000030F607472FF701F8017808803AFF0037
:100EEE0080307F02031D7D2F09307702031C802F77
:100EFE00812F822F9F2F0130F200770A882F031047
:100F0E00F20DFF3E031D862F720883120313870016
:100F1E00E830F0000330F1000A128A11E7260A12B7
:100F2E008A110130F7070318F80A0030F807742FFA
:100F3E00F901FA017A08803AFF0080307F02031D22
:100F4E00AA2F09307902031CAD2FAE2FAF2FCC2F55
:100F5E000130F200790AB52F0310F20DFF3E031D8A
:100F6E00B32F7208831203138800E830F0000330A9
:100F7E00F1000A128A11E7260A128A110130F907C6
:100F8E000318FA0A0030FA07A12FFB01FC017C08B6
:100F9E00803AFF0080307F02031DD72F09307B027D
:100FAE00031CDA2FDB2FDC2F182F0130F2007B0A07
:100FBE00E22F0310F20DFF3E031DE02F7208831285
:100FCE0003138900E830F0000330F1000A128A1191
:100FDE00E7260A128A110130FB070318FC0A0030BB
:100FEE00FC07CE2F0A128A11002883010A128A11D9
:020FFE00F62ECD
:00000001FF
