:060000000A128A11F22F22
:100B98007418CF2DD32D831203138716D62D8312E5
:100BA800031387120713720886000A128A11DF25B9
:100BB8000A128A1108008312031387171430F100F0
:100BC8007930F000F00BE62DF10BE62DEB2D8312BA
:100BD800031387131430F1007930F000F00BF22D75
:100BE800F10BF22DF72D08007108803AF4007D080A
:100BF800803A7402031D022E7C087002031C052E25
:100C0800062E092E8312031307147108803AF40084
:100C18007D08803A7402031D132E7C0870020318A5
:100C2800162E172E1A2E83120313071073087D062B
:100C3800031D202E72087C06031D232E242E262E2B
:100C4800FC01FD010800F601F31F2B2E2C2E332E7C
:100C5800F209F309F20A0319F30AF601F60AF11F79
:100C6800362E372E3C2EF009F109F00A0319F10A45
:100C7800700871040319412E422E712EF501F50AF0
:100C8800502E01300310F00DF10DFF3E031D462ECE
:100C98000130F4007408F507F11F532E542E452E29
:100CA80071087302031D5A2E70087202031C5D2E10
:100CB8005E2E642E7008F2027108031CF303F3021F
:100CC80001300310F10CF00CFF3E031D652E0130BE
:100CD800F502031D702E712E542E76080319752EF9
:100CE800762E7B2EF209F309F20A0319F30A730828
:100CF800F1007208F000080083120313A701F81F1F
:100D0800862E872E8E2EF709F809F70A0319F80A96
:100D1800A701A70AFA1F912E922E9B2EF909FA090C
:100D2800F90A0319FA0A0130FB007B08A706A80193
:100D3800A901770878040319A22EA32EDA2EA6019A
:100D4800A60AB12E01300310F70DF80DFF3E031D62
:100D5800A72E0130FB007B08A607F81FB42EB52E7E
:100D6800A62E01300310A80DA90DFF3E031DB62EB7
:100D780078087A02031DC22E77087902031CC52E53
:100D8800C62ECD2E7708F9027808031CFA03FA025A
:100D9800281401300310F80CF70CFF3E031DCE2E6B
:100DA8000130A602031DD92EDA2EB52E2708031905
:100DB800DE2EDF2EE42EA809A909A80A0319A90A1C
:100DC8002908F8002808F70008008316031387018C
:100DD80083120313870183160313860183120313F7
:100DE800860183160317880189013830F200003024
:100DF800F3000030F400F5000A128A11CC250A121B
:100E08008A110E30F2000030F3000030F400F500D3
:100E18000A128A11CC250A128A1107308316031385
:100E2800810026308312031381000B1D1C2F1D2FF8
:100E3800C72F0130FC070318FD0A0030FD07643096
:100E4800F7000030F8007D08FA007C08F9000A1263
:100E58008A1180260A128A11780883120313A500C2
:100E68007708A4000A30F7000030F8007D08F30086
:100E78007C08F2006430F0000030F1000A128A1198
:100E880027260A128A117108FA007008F9000A1256
:100E98008A1180260A128A11780883120313A30084
:100EA8007708A2000A30F0000030F1007D08F30056
:100EB8007C08F2000A128A1127260A128A11710880
:100EC80083120313A1007008A0008030F2000030E4
:100ED800F3000030F400F5000A128A11CC250A123A
:100EE8008A11831203132408303EF20025080318E0
:100EF800013E003EF3000130F4000030F5000A1214
:100F08008A11CC250A128A118130F2000030F300D0
:100F18000030F400F5000A128A11CC250A128A1151
:100F2800831203132208303EF20023080318013EFF
:100F3800003EF3000130F4000030F5000A128A1177
:100F4800CC250A128A118230F2000030F3000030FA
:100F5800F400F5000A128A11CC250A128A118312AC
:100F680003132008303EF20021080318013E003E1A
:100F7800F3000130F4000030F5000A128A11CC2584
:100F88000A128A110B11B430F0000030F100B430AD
:100F9800F2000030F3000A128A11F8250A128A11A9
:100FA8005A30F0000030F100B430F2000030F300A5
:100FB8000A128A11F8250A128A113630F000003018
:100FC800F100B430F2000030F3000A128A11F8255B
:100FD8000A128A11192F0A128A110028FC01FD0130
:100FE80083120313A001A101A201A301A401A50179
:080FF80083010A128A11E92E9F
:00000001FF
