:060000000A128A11FC2F18
:100F82003130831603138500831203138501831600
:100F92000313870183120313870183160317880142
:100FA200890183120313051CD72FD82FDD2F0519B2
:100FB200DB2FDC2FDD2F07140518E02FE12FE62FA2
:100FC2000519E42FE52FE62F0710051CE92FEA2F5C
:100FD200EF2F051DED2FEE2FEF2F07100518F22F23
:100FE200F32FD22F051DF62FF72FD22F0714D22F52
:0E0FF2000A128A11002883010A128A11C12FE7
:00000001FF
