:060000000A128A11122809
:10000800FE00030EF3000408F4000A08F50083124A
:1000180003137F08F6000A128A11AD280A128A1102
:10002800152883133430FD000130FE003130FF0005
:10003800203084000A128A1149210A128A11BF014C
:10004800C001F701F80183010A128A112B288B17C6
:100058000B170B16831603138501013086008701E1
:10006800880183120313850186018701880183169D
:10007800031788018901023083120313B600003088
:10008800B7000030B800B9000A128A11EE200A122F
:100098008A11283083120313B6000030B7000030ED
:1000A800B800B9000A128A11EE200A128A110E301D
:1000B80083120313B6000030B7000030B800B9004F
:1000C8000A128A11EE200A128A1180308312031351
:1000D800B6000030B7000030B800B9000A128A1123
:1000E800EE200A128A1183120313BF01C0014008CF
:1000F800803AFF0080307F02031D84280A303F02C7
:10010800031C8728882889287728831203133F0827
:10011800BC003C07203E840083130008880003309D
:1001280083120313BE008A30BD005530BC00BC0BDF
:100138009B28BD0B9B28BE0B9B2801308312031301
:10014800BF070318C00A0030C0077B280A128A11AB
:1001580012288B1CB028B128E1284008F8003F0875
:10016800F700D3287708F0007007203E8400831337
:1001780000088312031387003330F200BB30F1000C
:10018800DF30F000F00BC628F10BC628F20BC628AA
:10019800CD28FF30F7070318F80AFF30F80778086A
:1001A800803AFF0080307F02031DDC280A30770286
:1001B800031CDF28E028B6288B1076088312031367
:1001C800FF0075088A0074088400730E8300FE0E11
:1001D8007E0E0900831203133818F328F7288312B8
:1001E80003130514FA288312031305108510370822
:1001F800BB003608BA000430FF003B0DBB0CBA0C3C
:10020800FF0B01293A080F3987000A128A111921B0
:100218000A128A118312031336080F3987000A124B
:100228008A1119210A128A1108008312031305156D
:10023800823083120313B500DD30B400B40B2229D9
:10024800B50B2229823083120313B500DD30B400C8
:10025800B40B2C29B50B2C2908003F340034063484
:1002680000345B3400344F340034663400346D3469
:1002780000347D340034073400347F3400346F3464
:1002880000347E088A007F0882000A128A114521FC
:100298000A128A118000840A04087D0603190034B2
:0802A800FF0A0319FE0A4929AF
:00000001FF
