:060000000A128A11FC2F18
:100DC6008316031385018312031385018316031308
:100DD6008601831203138601831603138701831288
:100DE60003138701831603138801831203138801F3
:100DF60083160313890183120313890183160317CC
:100E060088018901F301F4010130F000730A0D2F06
:100E16000310F00DFF3E031D0B2F7008F100710843
:100E26008312031385040130F000730A1C2F03108C
:100E3600F00DFF3E031D1A2F7008F100710887049C
:100E46000230F2008630F1009930F000F00B292FC5
:100E5600F10B292FF20B292F7308013EF3007408BA
:100E66000318013E003EF4007408803AFF0080300B
:100E76007F02031D402F08307302031C432F442FAB
:100E8600072F0730F3000030F4000130F000730A3A
:100E96004E2F0310F00DFF3E031D4C2F7008FF3A36
:100EA600F10071088312031385050130F000730AFF
:100EB6005E2F0310F00DFF3E031D5C2F7008FF3AF6
:100EC600F100710887050230F2008630F100993092
:100ED600F000F00B6C2FF10B6C2FF20B6C2F7308DC
:100EE600FF3EF30074080318013EFF3EF400F41FB2
:100EF6007D2F7E2F482FF301F4010130F000730A95
:100F0600862F0310F00DFF3E031D842F7008F1009D
:100F160071088312031386040130F000730A952FBB
:100F26000310F00DFF3E031D932F7008F1007108AA
:100F360088040230F2000430F100BA30F000F00B01
:100F4600A22FF10BA22FF20BA22F00007308013E75
:100F5600F30074080318013E003EF4007408803A5A
:100F6600FF0080307F02031DBA2F08307302031C76
:100F7600BD2FBE2F802F0730F3000030F400013064
:100F8600F000730AC82F0310F00DFF3E031DC62F95
:100F96007008FF3AF10071088312031386050130C9
:100FA600F000730AD82F0310F00DFF3E031DD62F55
:100FB6007008FF3AF100710888050230F20004302B
:100FC600F100BA30F000F00BE62FF10BE62FF20B32
:100FD600E62F00007308FF3EF30074080318013E75
:100FE600FF3EF400F41FF82FF92FC22F0A128A11C0
:0A0FF600002883010A128A11E32E7D
:00000001FF
