:060000000A128A11EE2F26
:100B6A007418B82DBC2D831203138816BF2D831257
:100B7A00031388120813720886000A128A11C825FC
:100B8A000A128A1108008312031388170D30F10024
:100B9A00FB30F000F00BCF2DF10BCF2DD42D8312AB
:100BAA00031388130D30F100FB30F000F00BDB2D3E
:100BBA00F10BDB2DE02D0800F601F31FE52DE62DE4
:100BCA00ED2DF209F309F20A0319F30AF601F60AFE
:100BDA00F11FF02DF12DF62DF009F109F00A031994
:100BEA00F10A700871040319FB2DFC2D2B2EF50157
:100BFA00F50A0A2E01300310F00DF10DFF3E031D18
:100C0A00002E0130F4007408F507F11F0D2E0E2E88
:100C1A00FF2D71087302031D142E70087202031C43
:100C2A00172E182E1E2E7008F2027108031CF303E9
:100C3A00F30201300310F10CF00CFF3E031D1F2ECE
:100C4A000130F502031D2A2E2B2E0E2E76080319CB
:100C5A002F2E302E352EF209F309F20A0319F30A60
:100C6A007308F1007208F000080083120313AD0143
:100C7A00F81F402E412E482EF709F809F70A0319E2
:100C8A00F80AAD01AD0AFA1F4B2E4C2E552EF90962
:100C9A00FA09F90A0319FA0A0130FB007B08AD06C2
:100CAA00AE01AF017708780403195C2E5D2E942EED
:100CBA00AC01AC0A6B2E01300310F70DF80DFF3EA4
:100CCA00031D612E0130FB007B08AC07F81F6E2E56
:100CDA006F2E602E01300310AE0DAF0DFF3E031DC7
:100CEA00702E78087A02031D7C2E77087902031C7D
:100CFA007F2E802E872E7708F9027808031CFA03C4
:100D0A00FA022E1401300310F80CF70CFF3E031DF3
:100D1A00882E0130AC02031D932E942E6F2E2D08BF
:100D2A000319982E992E9E2EAE09AF09AE0A031901
:100D3A00AF0A2F08F8002E08F70008006430F70001
:100D4A000030F800831203133108FA003008F90062
:100D5A000A128A113A260A128A1178088312031390
:100D6A00A9007708A8000A30F7000030F800310817
:100D7A00F3003008F2006430F0000030F1000A128B
:100D8A008A11E1250A128A117108FA007008F9001D
:100D9A000A128A113A260A128A1178088312031350
:100DAA00A7007708A6003108F3003008F200643083
:100DBA00F0000030F1000A128A11E1250A128A11A4
:100DCA007108FD007008FC000A30F0000030F100E4
:100DDA007D08F3007C08F2000A128A11E1250A1242
:100DEA008A11710883120313A5007008A40033083E
:100DFA00F3003208F2000030F400F5000A128A11FA
:100E0A00B5250A128A11831203132808303EF2000C
:100E1A0029080318013E003EF3000130F4000030B7
:100E2A00F5000A128A11B5250A128A1183120313D0
:100E3A002608303EF20027080318013E003EF30060
:100E4A000130F4000030F5000A128A11B5250A12A1
:100E5A008A11831203132408303EF200250803186E
:100E6A00013E003EF3000130F4000030F5000A12A2
:100E7A008A11B5250A128A110800831603138601FE
:100E8A008312031386018316031388018312031343
:100E9A0088018316031789013930831203139000DE
:100EAA003830F2000030F3000030F400F5000A1286
:100EBA008A11B5250A128A110E30F2000030F300A9
:100ECA000030F400F5000A128A11B5250A128A11B7
:100EDA000B30831203138F00DC308E00831203134E
:100EEA000C1C782F792F842F0130AA070318AB0A1C
:100EFA000030AB070C1000308F004E308E000230ED
:100F0A002A062B04031D8A2F8B2F932F0130A20749
:100F1A000318A30A0030A307AA01AB012308803AE9
:100F2A00FF0080307F02031D9C2F3C302202031CED
:100F3A009F2FA02FAA2F83120313A201A30101300E
:100F4A00A0070318A10A0030A1078312031321087E
:100F5A00803AFF0080307F02031DB52F3C3020020B
:100F6A00031CB82FB92FBD2F83120313A001A101AF
:100F7A00831203132B08B1002A08B0008030B20094
:100F8A000030B3000A128A11A3260A128A118312A8
:100F9A0003132308B1002208B000C730B2000030A2
:100FAA00B3000A128A11A3260A128A1183120313A2
:100FBA002108B1002008B0008D30B2000030B30023
:100FCA000A128A11A3260A128A11732F0A128A1187
:100FDA00002883120313A001A101A201A301A40105
:100FEA00A501A601A701A801A901AA01AB018301D4
:060FFA000A128A11422FC9
:00000001FF
