:060000000A128A11EA2F2A
:100BA0007E088A007F0882000A128A11D0250A1264
:100BB0008A118000840A04087D0603190034FF0AA4
:100BC0000319FE0AD42D3F340034063400345B345C
:100BD00000344F340034663400346D3400347D34D6
:100BE0000034073400347F3400346F34003483120F
:100BF00003133908B7003808B600112E8312031307
:100C00003708FA003608F9000A128A1190260A12EB
:100C10008A11013083120313B6070318B70A003094
:100C2000B7073B08803AFD003708803A7D02031D74
:100C30001B2E36083A0203181E2E1F2EFE2D08000A
:100C4000831203133908B5003808B4003A2E831212
:100C500003133508FA003408F9000A128A11DD2658
:100C60000A128A11013083120313B4070318B50A5C
:100C70000030B5073B08803AFD003508803A7D0218
:100C8000031D442E34083A020318472E482E272EFF
:100C900008000330831603138500831203138501B4
:100CA000831603138701831203138701831603132B
:100CB00088018312031388018316031788018901B1
:100CC00083120313051C652E662E762E8518692E59
:100CD0006A2E762E0030B800B9006330BA000030BA
:100CE000BB000A128A11F7250A128A118312031314
:100CF00005187B2E7C2E602E851C7F2E802E602E6C
:100D00000030B800B9006330BA000030BB000A12EE
:100D10008A1120260A128A11602E0A128A110028CE
:100D20008312031388150815881408100A30F00080
:100D30000030F1007A08F3007908F2000A128A11F3
:100D400083270A128A117008FB007B07203E84006B
:100D5000831300088312031387004130FC00EE3038
:100D6000FB00FB0BB12EFC0BB12E00008312031312
:100D700008148815081588100A30F0000030F100BA
:100D80007A08F3007908F2000A128A112A270A1257
:100D90008A117008FB007B07203E84008313000843
:100DA0008312031387004130FC00EE30FB00FB0B85
:100DB000D72EFC0BD72E0000080083120313081453
:100DC0008814881508110A30F0000030F1007A0804
:100DD000F3007908F2000A128A1183270A128A1195
:100DE0007008FB007B07203E8400831300088312F9
:100DF000031387004130FC00EE30FB00FB0BFE2E9E
:100E0000FC0BFE2E0000831203130815081488142F
:100E100088110A30F0000030F1007A08F3007908F8
:100E2000F2000A128A112A270A128A117008FB009E
:100E30007B07203E8400831300088312031387007E
:100E40004130FC00EE30FB00FB0B242FFC0B242F69
:100E500000000800F601F31F2E2F2F2F362FF20966
:100E6000F309F20A0319F30AF601F60AF11F392F02
:100E70003A2F3F2FF009F109F00A0319F10A70081F
:100E800071040319442F452F742FF501F50A532FD0
:100E900001300310F00DF10DFF3E031D492F01300D
:100EA000F4007408F507F11F562F572F482F7108CB
:100EB0007302031D5D2F70087202031C602F612FE7
:100EC000672F7008F2027108031CF303F30201306C
:100ED0000310F10CF00CFF3E031D682F0130F502EA
:100EE000031D732F742F572F76080319782F792F2E
:100EF0007E2FF209F309F20A0319F30A7308F100CD
:100F00007208F0000800F601F11F872F882F8F2F3D
:100F1000F009F109F00A0319F10AF601F60AF31FC4
:100F2000922F932F9C2FF209F309F20A0319F30A67
:100F30000130F4007408F606F701F8017008710436
:100F40000319A32FA42FDB2FF501F50AB22F0130CF
:100F50000310F00DF10DFF3E031DA82F0130F4002A
:100F60007408F507F11FB52FB62FA72F0130031016
:100F7000F70DF80DFF3E031DB72F71087302031D17
:100F8000C32F70087202031CC62FC72FCE2F700804
:100F9000F2027108031CF303F3027714013003100B
:100FA000F10CF00CFF3E031DCF2F0130F502031DA5
:100FB000DA2FDB2FB62F76080319DF2FE02FE52F6E
:100FC000F709F809F70A0319F80A7808F100770811
:100FD000F000080083133430FD000530FE00E330DC
:100FE000FF00203084000A128A11D4250A128A11C7
:100FF000B401B501B601B70183010A128A11492E65
:00000001FF
