:060000000A128A11EE2F26
:100E5C007E088A007F0882000A128A112E270A1245
:100E6C008A118000840A04087D0603190034FF0AE5
:100E7C000319FE0A322FC034F934A434B034993437
:100E8C0092348234F834003400343F3406345B340A
:100E9C004F3466346D347D3407340034003483169B
:100EAC000313850183120313850183160313880131
:100EBC0083120313880183160317880189012030DC
:100ECC0084004230F0000408F1000A30F20070088F
:100EDC00840083130008F300F00A7108840073087F
:100EEC008000F10AF20B6D2F2A3084003830F000AC
:100EFC000408F1000A30F200700884008313000823
:100F0C00F300F00A7108840073088000F10AF20BF8
:100F1C00822F83120313B401B50183120313340817
:100F2C00203E84008313000885000630F200133045
:100F3C00F100AD30F000F00BA12FF10BA12FF20B53
:100F4C00A12FA82F013083120313B4070318B50A7D
:100F5C000030B5073508803AFF0080307F02031D52
:100F6C00B92F08303402031CBC2FBD2F932F8312D2
:100F7C000313B601B7018312031336082A3E84000B
:100F8C008313000888000630F2001330F100AD30F6
:100F9C00F000F00BCF2FF10BCF2FF20BCF2FD62F62
:100FAC00013083120313B6070318B70A0030B707D2
:100FBC003708803AFF0080307F02031DE72F08308E
:100FCC003602031CEA2FEB2FC12F0A128A110028BC
:100FDC0083134C30FD000730FE004130FF003830E9
:100FEC0084000A128A1132270A128A1183010A120A
:040FFC008A11552FD2
:00000001FF
